:020000040000FA
:06000000C8EF02F012003F
:020006000000F8
:08000800D9CFE6FFDACFE6FFD5
:10001000E1CFD9FFE2CFDAFF0F0E83169516959444
:10002000959295908C948C928C9085EC00F0300E8B
:10003000E66ECFEC01F0E552050EE66E91EC02F0B3
:10004000E552300EE66ECFEC01F0E552010EE66EA1
:1000500091EC02F0E552320EE66ECFEC01F0E55283
:1000600076EC02F00009FCE176EC02F00009FCE11C
:10007000FD0EDBCFE6FFCFEC01F0E55276EC02F0AF
:100080000009FCE1080EE66ECFEC01F0E55276ECDB
:1000900002F00009FCE10F0EE66ECFEC01F0E55234
:1000A00076EC02F00009FCE1010EE66ECFEC01F007
:1000B000E55276EC02F00009FCE1040EE66ECFECAE
:1000C00001F0E55276EC02F00009FCE1800EE66EEC
:1000D00049EC01F0E552E552E5CFDAFFE7CFD9FF71
:0200E00012000C
:0E00E200000000000000000000000000000010
:1000F0000000010EE66ED6EC02F0E5521200050E8D
:10010000E66EA8EC02F0E55212000F0EE66EA8ECC7
:1001100002F0E5521200836A956A280EE66E04EC3E
:1001200000F0E55276EC02F0000901E0FBD7430E47
:10013000E66E49EC01F0E552060EE66ECFEC01F0FA
:10014000E55276EC02F0000901E0FBD70F0EE66EF7
:10015000CFEC01F0E55276EC02F0000901E0FBD7AC
:10016000C20EE66E050EE66E000EE66E11EC01F0B4
:10017000E552E552E55276EC02F0000901E0FBD7CA
:040180000300120066
:0C018400060EF66E000EF76E000EF86E10
:1001900004010900F550066F0900F550076F03E1EF
:1001A000066701D03DD00900F550016F0900F550F8
:1001B000026F0900F550036F09000900F550E96E60
:1001C0000900F550EA6E090009000900F550046FB6
:1001D0000900F550056F09000900F6CF08F4F7CFC4
:1001E00009F4F8CF0AF401C4F6FF02C4F7FF03C410
:1001F000F8FF0401045302E1055307E00900F5503C
:10020000EE6E0407F8E20507F9D708C4F6FF09C443
:10021000F7FF0AC4F8FF04010607000E075BBFD70B
:020220001200CA
:0E022200D9CFE6FFDACFE6FFE1CFD9FFE2CF7A
:10023000DAFFFB0EDBCFF6FFFC0EDBCFF7FFFD0E88
:10024000DBCFF8FF0800F5501EE076EC02F0000965
:10025000FCE1FB0EDBCFF6FFFC0EDBCFF7FFFD0E64
:10026000DBCFF8FF0800F550E66EA3EC01F0E55295
:10027000D950FB0FE96EFF0EDA20EA6EEE2A000E6F
:10028000EE22EE22D6D7E552E5CFDAFFE7CFD9FF4F
:0202900012005A
:0E029200D9CFE6FFDACFE6FFE1CFD9FFE2CF0A
:1002A000DAFF0F0E95168316FD0EDB508009F00B5A
:1002B00083128C948C9271EC00F08C8071EC00F0C5
:1002C0008C900F0E8316FD0EDB38F00BF00B8312B3
:1002D00071EC00F08C8071EC00F08C90F00E9512B7
:0C02E000E552E5CFDAFFE7CFD9FF1200AE
:0402EC00D9CFE6FF81
:1002F000DACFE6FFE1CFD9FFE2CFDAFF0F0E951696
:100300008316FD0EDB504009F00B83128C948C9207
:1003100071EC00F08C8071EC00F08C900F0E831665
:10032000FD0EDB38F00BF00B831271EC00F08C80CB
:1003300071EC00F08C90F00E9512E552E5CFDAFFEB
:06034000E7CFD9FF120017
:0A034600D9CFE6FFDACFE6FFE1CFE2
:10035000D9FFE2CFDAFF0F0E95168316FD0EDB50A4
:10036000F00B83128C828C9471EC00F08C8071EC19
:1003700000F08C900F0E8316FD0EDB38F00BF00BA7
:10038000831271EC00F08C8071EC00F08C90F00E18
:0E0390009512E552E5CFDAFFE7CFD9FF120054
:02039E00D9CFB5
:1003A000E6FFDACFE6FFE1CFD9FFE2CFDAFF0F0EAB
:1003B00095168316FD0EDB50F00B83128C948C92F5
:1003C00071EC00F08C8071EC00F08C900F0E8316B5
:1003D000FD0EDB38F00BF00B831271EC00F08C801B
:1003E00071EC00F08C90F00E9512E552E5CFDAFF3B
:0603F000E7CFD9FF120067
:0A03F600D9CFE6FFDACFE6FFE1CF32
:10040000D9FFE2CFDAFFFC0EDBCFE9FFFD0EDBCF39
:10041000EAFFEF5015E076EC02F00009FCE1FC0E7B
:10042000DBCFE9FFFD0EDBCFEAFFEF50E66EA3EC7A
:1004300001F0E552FC0EDB2AFD0EE5E3DB2AE3D7F3
:0C044000E552E5CFDAFFE7CFD9FF12004C
:04044C00D9CFE6FF1F
:10045000DACFE6FFE1CFD9FFE2CFDAFFE6528C84B4
:100460008C8271EC00F08C8071EC00F0F00E831443
:10047000DF6E8C9071EC00F08C8071EC00F08338B2
:100480000F0B0F0BDF128C908C928C94DF50E55287
:0C049000E552E5CFDAFFE7CFD9FF1200FC
:04049C00D9CFE6FFCF
:1004A000DACFE6FFE1CFD9FFE2CFDAFFE6528C8464
:1004B0008C9271EC00F08C8071EC00F0F00E8314E3
:1004C000DF6E8C9071EC00F08C8071EC00F0833862
:1004D0000F0B0F0BDF128C908C947F0EDF14E55204
:0C04E000E552E5CFDAFFE7CFD9FF1200AC
:0404EC008C848C92DE
:1004F00071EC00F08C8071EC00F083AE09D08C9030
:1005000071EC00F08C8071EC00F08C908C94010CFC
:100510008C9071EC00F08C8071EC00F08C908C94DD
:02052000000CCD
:0E052200FF0EE350036EEF0E01D0F30EE76EF6
:10053000E72E98EF02F00C0E026EE76AE72E9EEFB0
:1005400002F0022E9DEF02F0032E96EF02F0120051
:10055000FF0EE350036E480E01D04C0EE76EE72EFF
:10056000FED7E76AE72EFED7032EF7D7000012006A
:10057000000EF36E00EE00F0060E01D81200EA60E5
:1005800002D0EE6AFCD7F350E9601200EE6AFCD7A5
:1005900013EE81F023EE81F0F86A019CC2EC00F0CA
:0C05A000E8EC02F08BEC00F0FBD712003E
:0405AC00FF0EE3500B
:1005B000E84E1200000000D000D000D0E82EFAD79C
:0205C000120027
:0D05C20048656C6C6F20576F726C642100EF
:0205D000120017
:020000040030CA
:0100010022DC
:010003000EEE
:010006008178
:00000001FF
