:020000040000FA
:0600000084EF02F0120083
:020006000000F8
:08000800D9CFE6FFE1CFD9FFDB
:100010000F0E831695169594959295908C948C92CC
:100020008C90CEEC00F0300EE66EA3EC01F0E552C1
:10003000050EE66E4DEC02F0E552300EE66EA3ECD6
:1000400001F0E552010EE66E4DEC02F0E552320E83
:10005000E66EA3EC01F0E55232EC02F00009FCE19F
:1000600032EC02F00009FCE1FE0EDBCFE6FFA3EC70
:1000700001F0E55232EC02F00009FCE1080EE66EF8
:10008000A3EC01F0E55232EC02F00009FCE10F0EA6
:10009000E66EA3EC01F0E55232EC02F00009FCE15F
:1000A000010EE66EA3EC01F0E55232EC02F000091D
:1000B000FCE1040EE66EA3EC01F0E55232EC02F036
:1000C0000009FCE1800EE66E08EC01F0E552E55215
:0600D000E7CFD9FF12008A
:0A00D600060EF66E000EF76E000E27
:1000E000F86E04010900F550066F0900F550076F1E
:1000F00003E1066701D03DD00900F550016F09000A
:10010000F550026F0900F550036F09000900F55022
:10011000E96E0900F550EA6E090009000900F55082
:10012000046F0900F550056F09000900F6CF08F4C7
:10013000F7CF09F4F8CF0AF401C4F6FF02C4F7FFC1
:1001400003C4F8FF0401045302E1055307E009006A
:10015000F550EE6E0407F8E20507F9D708C4F6FF7C
:1001600009C4F7FF0AC4F8FF04010607000E075B85
:04017000BFD71200E3
:0C0174000000000000000000000000007F
:1001800000000000010EE66E92EC02F0E552120053
:10019000050EE66E64EC02F0E55212000F0EE66EFC
:1001A00064EC02F0E5521200836A956A280EE66E4E
:1001B00004EC00F0E55232EC02F0000901E0FBD75C
:1001C000430EE66E08EC01F0E552060EE66EA3EC77
:1001D00001F0E55232EC02F0000901E0FBD70F0E0E
:1001E000E66EA3EC01F0E55232EC02F0000901E00A
:1001F000FBD73A0EE66E050EE66E56EC01F0E552C0
:10020000E55232EC02F0000901E0FBD703001200D6
:10021000D9CFE6FFE1CFD9FF0F0E95168316FE0E5C
:10022000DB508009F00B83128C948C92BAEC00F0B6
:100230008C80BAEC00F08C900F0E8316FE0EDB382B
:10024000F00BF00B8312BAEC00F08C80BAEC00F0EB
:0E0250008C90F00E9512E552E7CFD9FF120008
:02025E00D9CFF6
:10026000E6FFE1CFD9FF0F0E95168316FE0EDB5089
:100270004009F00B83128C948C92BAEC00F08C80C5
:10028000BAEC00F08C900F0E8316FE0EDB38F00BEC
:10029000F00B8312BAEC00F08C80BAEC00F08C907A
:0C02A000F00E9512E552E7CFD9FF1200D6
:0402AC00D9CFE6FFC1
:1002B000E1CFD9FFFD0EDBCFF6FFFE0EDBCFF7FF60
:1002C0000800F55016E032EC02F00009FCE1FD0EEA
:1002D000DBCFF6FFFE0EDBCFF7FF0800F550E66E32
:1002E0007DEC01F0E552FD0EDB2AFE0EE3E3DB2A96
:0A02F000E1D7E552E7CFD9FF120075
:0602FA00D9CFE6FFE1CFC1
:10030000D9FF0F0E95168316FE0EDB50F00B8312ED
:100310008C828C94BAEC00F08C80BAEC00F08C905B
:100320000F0E8316FE0EDB38F00BF00B8312BAECC7
:1003300000F08C80BAEC00F08C90F00E9512E55233
:06034000E7CFD9FF120017
:0A034600D9CFE6FFE1CFD9FF0F0E7B
:1003500095168316FE0EDB50F00B83128C948C9254
:10036000BAEC00F08C80BAEC00F08C900F0E831683
:10037000FE0EDB38F00BF00B8312BAEC00F08C8031
:10038000BAEC00F08C90F00E9512E552E7CFD9FF51
:02039000120059
:0E039200D9CFE6FFE1CFD9FFFD0EDBCFE9FFAB
:1003A000FE0EDBCFEAFFEF5015E032EC02F0000961
:1003B000FCE1FD0EDBCFE9FFFE0EDBCFEAFFEF50E5
:1003C000E66E7DEC01F0E552FD0EDB2AFE0EE5E364
:0C03D000DB2AE3D7E552E7CFD9FF12008B
:0403DC00D9CFE6FF90
:1003E000E1CFD9FFE6528C848C82BAEC00F08C808D
:1003F000BAEC00F0F00E8314DF6E8C90BAEC00F0D3
:100400008C80BAEC00F083380F0B0F0BDF128C904E
:100410008C928C94DF50E552E552E7CFD9FF120061
:10042000D9CFE6FFE1CFD9FFE6528C848C92BAECAB
:1004300000F08C80BAEC00F0F00E8314DF6E8C902C
:10044000BAEC00F08C80BAEC00F083380F0B0F0B85
:10045000DF128C908C947F0EDF14E552E552E7CFCB
:04046000D9FF1200AE
:0C0464008C848C92BAEC00F08C80BAEC16
:1004700000F083AE09D08C90BAEC00F08C80BAEC1E
:1004800000F08C908C94010C8C90BAEC00F08C8075
:0A049000BAEC00F08C908C94000C84
:06049A00FF0EE350036EAB
:1004A000EF0E01D0F30EE76EE72E54EF02F00C0EC4
:1004B000026EE76AE72E5AEF02F0022E59EF02F0C1
:0804C000032E52EF02F01200BE
:0804C800FF0EE350036E480E25
:1004D00001D04C0EE76EE72EFED7E76AE72EFED777
:0804E000032EF7D70000120003
:0804E800000EF36E00EE00F0BF
:1004F000060E01D81200EA6002D0EE6AFCD7F35073
:08050000E9601200EE6AFCD76D
:0805080013EE81F023EE81F0F7
:10051000F86A019C6BEC00F0A4EC02F0D4EC00F063
:04052000FBD71200F3
:0C052400FF0EE350E84E1200000000D073
:0A05300000D000D0E82EFAD7120028
:06053A0048656C6C6F20A7
:07054000576F726C6421008B
:0205480012009F
:020000040030CA
:0100010022DC
:010003000EEE
:010006008178
:00000001FF
